:100000000C9434010C945C010C945C010C945C0124
:100010000C945C010C945C010C945C010C945C01EC
:100020000C945C010C945C010C945C010C945E06D5
:100030000C945C010C945C010C945C010C945C01CC
:100040000C9414060C945C010C94E2050C94BC0511
:100050000C945C010C945C010C945C010C945C01AC
:100060000C945C010C945C0173746570732F732E97
:100070000073746570732F7320616E64206C6573F8
:1000800073207468616E20004E6577206665656434
:1000900072617465206D7573742062652067726586
:1000A00061746572207468616E20006665656472B3
:1000B0006174653A00416C6C20636F6D6D616E64B4
:1000C00073206D75737420656E6420776974682081
:1000D00061206E65776C696E652E004D3130303B66
:1000E000202D20746869732068656C70206D6573BD
:1000F00073616765004D31393B202D20656E61626B
:100100006C65206D6F746F7273004D31383B202D1C
:100110002064697361626C65206D6F746F72730027
:100120004D31205B4128616E676C65295D3B202D58
:10013000206368616E67652070656E20616E676C14
:100140006500473932205B4C287374657073295DF4
:10015000205B52287374657073295D3B202D2063EA
:1001600068616E6765206C6F676963616C20706F92
:10017000736974696F6E0047303420505B6D696C31
:10018000697365636F6E64735D3B202D2064656CDD
:10019000617900473031205B4C2873746570732996
:1001A0005D205B52287374657073295D205B46285F
:1001B0006665656472617465295D3B202D206C69FC
:1001C0006E6500473030205B4C287374657073296E
:1001D0005D205B52287374657073295D205B46282F
:1001E0006665656472617465295D3B202D206C69CC
:1001F0006E6500436F6D6D616E64733A004A5644DC
:10020000726177426F742056657273696F6E200059
:100210003E000D0A00000000080002010000030477
:10022000070000000000000000000000002500287A
:10023000002B0000000000240027002A0004040412
:10024000040404040402020202020203030303037F
:10025000030102040810204080010204081020015C
:100260000204081020001F0711241FBECFEFD8E0A2
:10027000DEBFCDBF11E0A0E0B1E0E8E4F9E102C0EB
:1002800005900D92AA32B107D9F723E0AAE2B1E0B6
:1002900001C01D92A230B207E1F711E0C4E3D1E042
:1002A00004C02197FE010E94970CC333D107C9F700
:1002B0000E947D070C94A20C0C9400000F931F93D6
:1002C000CF93DF938C01C0E0D0E0F801EC0FFD1F6D
:1002D0006491662371F0E0913D02F0913E0201903D
:1002E000F081E02D8DE392E00995892B11F02196A4
:1002F000ECCFCE01DF91CF911F910F91089590E047
:10030000FC01EF5AFD4F2491FC01E35CFD4F849109
:10031000882399F090E0880F991FFC01ED5CFD4F58
:10032000A591B491FC01E75DFD4F859194918FB744
:10033000F894EC91E22BEC938FBF0895CF92DF926B
:10034000EF92FF920F931F93CF93DF936C017A018B
:100350008B01C0E0D0E0CE15DF0589F0D8016D91AA
:100360008D01D601ED91FC910190F081E02DC60147
:100370000995892B11F47E0102C02196ECCFC701AB
:10038000DF91CF911F910F91FF90EF90DF90CF9071
:100390000895FC01918D828D981761F0828DDF01A7
:1003A000A80FB11D5D968C91928D9F5F9F73928F68
:1003B00090E008958FEF9FEF0895FC01918D828D5D
:1003C000981731F0828DE80FF11D858D90E008952A
:1003D0008FEF9FEF0895FC01918D228D892F90E082
:1003E000805C9F4F821B91098F73992708958DE33D
:1003F00092E00E94EB0121E0892B09F420E0822F9A
:100400000895FC01848DDF01A80FB11DA35ABF4FD1
:100410002C91848D90E001968F739927848FA68903
:10042000B7892C93A089B1898C9180648C93938D2A
:10043000848D981306C00288F389E02D80818F7D1A
:1004400080830895EF92FF920F931F93CF93DF93D2
:10045000EC0181E0888F9B8D8C8D981305C0E88915
:10046000F989808185FD24C0F62E0B8D10E00F5F89
:100470001F4F0F731127E02E8C8DE8120CC00FB6A2
:1004800007FCFACFE889F989808185FFF5CFCE0195
:100490000E940102F1CF8B8DFE01E80FF11DE35A9E
:1004A000FF4FF0820B8FEA89FB898081806207C051
:1004B000EE89FF896083E889F9898081806480837F
:1004C00081E090E0DF91CF911F910F91FF90EF902D
:1004D0000895CF93DF93EC01888D8823C9F0EA89D2
:1004E000FB89808185FD05C0A889B9898C9186FD2D
:1004F0000FC00FB607FCF5CF808185FFF2CFA8892A
:10050000B9898C9185FFEDCFCE010E940102E7CF22
:10051000DF91CF91089590E0FC01EB5EFD4F3491A7
:10052000FC01EF5AFD4F2491FC01E35CFD4FE49187
:10053000EE2309F43BC0332339F1333091F038F422
:100540003130A9F0323001F584B58F7D12C03730DB
:1005500091F03830A1F03430B9F4809180008F7D73
:1005600003C0809180008F77809380000DC084B598
:100570008F7784BD09C08091B0008F7703C08091D0
:10058000B0008F7D8093B000F0E0EE0FFF1FE75DBD
:10059000FD4FA591B4918FB7F894EC91611103C010
:1005A00020952E2301C02E2B2C938FBF08953FB78B
:1005B000F8948091760190917701A0917801B091A3
:1005C000790126B5A89B05C02F3F19F00196A11D02
:1005D000B11D3FBFBA2FA92F982F8827820F911DD9
:1005E000A11DB11DBC01CD0142E0660F771F881F20
:1005F000991F4A95D1F708952FB7F8946091720129
:100600007091730180917401909175012FBF0895CD
:10061000CF93C82F60E088E00E948B026C2F87E0A8
:100620000E948B0261E084E00E948B0260E084E023
:10063000CF910C948B02CF93C82F60E088E00E948A
:100640008B026C2F85E00E948B0261E082E00E94A9
:100650008B0260E082E0CF910C948B02009769F0EE
:10066000FC0101900020E9F73197AF01481B590BBD
:10067000BC018DE392E00C949E0180E090E008952F
:10068000CF93DF930E945E01EC0180E191E00E9434
:100690002E038C0F9D1FDF91CF91089510926F0153
:1006A00010926E0180E192E00C9440038F929F9231
:1006B000AF92BF92CF92DF92EF92FF920F931F9370
:1006C000CF93DF93CDB7DEB7A1970FB6F894DEBF17
:1006D0000FBECDBF6B017C0197FF31C0E0913D02A1
:1006E000F0913E020190F081E02D6DE28DE392E009
:1006F00009958C0122273327A9012C193D094E09A0
:100700005F0919A2CE0181967C019AE0892E912C75
:10071000A12CB12CCA01B901A50194010E942B0B97
:10072000605DF70162937F01211531054105510597
:1007300089F7CF010E942E03800F911F1DC09B01DE
:10074000AC0119A28E010F5D1F4F8AE0C82ED12C7B
:10075000E12CF12CCA01B901A70196010E942B0BD3
:10076000605DF80162938F01211531054105510546
:1007700089F7CF010E942E03A1960FB6F894DEBF31
:100780000FBECDBFDF91CF911F910F91FF90EF90E2
:10079000DF90CF90BF90AF909F908F9008958DEF96
:1007A00091E00E945E0161E070E080E090E00E94D4
:1007B000560380E191E00E942E0383EF91E00E94B6
:1007C000400383EC91E00E94400383E991E00E94A2
:1007D000400387E791E00E94400382E491E00E9499
:1007E000400380E291E00E9440038AE091E00E9491
:1007F000400385EF90E00E9440038BED90E00E9463
:10080000400385EB90E00C944003CF92DF92EF928F
:10081000FF92C0902A01D0902B01E0902C01F09023
:100820002D01C616D706E806F90609F457C06B0174
:100830007C01DC01CB0184569109A109B1098D3AF3
:100840009642A105B105E0F088E890E00E945E01C3
:1008500064E670E080E090E00E94560381E790E05B
:100860000E945E0160E177E280E090E00E94560322
:1008700088E690E0FF90EF90DF90CF900C944003DB
:10088000C701B6010E94FF0B9B01AC0160E074E25E
:1008900084E799E40E945C0B0E94CE0B60937B017D
:1008A00070937C0180937D0190937E01C0922A0118
:1008B000D0922B01E0922C01F0922D018BEA90E076
:1008C0000E945E01C701B6010E94560380E191E0DB
:1008D000FF90EF90DF90CF900C942E03FF90EF905D
:1008E000DF90CF9008950E949D0C20916E01309171
:1008F0006F01225D3E4FEEE2F1E09081992349F0D5
:10090000E217F30730F431969813F7CFCF010C9428
:10091000BD0ACB01BA010895AF92BF92DF92EF9268
:10092000FF920F931F93CF93DF93E12CDD24D39499
:1009300082E1F82E0FEF1FEF8DE392E00E94EB01B2
:10094000181619060CF0F5C08DE392E00E94C9015B
:10095000C82F809183018111E9C0E0913D02F0919F
:100960003E020190F081E02D6C2F8DE392E009951D
:1009700020916E0130916F012F33310554F4C9017C
:10098000019690936F0180936E01F901E25DFE4F35
:10099000C083CA3011F0CD3079F6E0916E01F0914C
:1009A0006F01E25DFE4F108282E192E00E945E01E3
:1009B0004FEF5FEFBA0187E40E94750477FD58C0DE
:1009C0006230710514F16430710509F051C0C091B5
:1009D0007A01FC9EE0011124CC57DE4F188619865F
:1009E0001A861B86188219821A821B821C821D821B
:1009F0001E821F8240E050E0BA0180E50E9475042B
:100A00006E877F87888B998B31C0A0907A01B12C3B
:100A100040912A0150912B0160912C0170912D0180
:100A200086E40E947504FA9CE001FB9CD00D112421
:100A3000CC57DE4F688779878A879B8740E050E0F4
:100A4000BA018CE40E947504688379838A839B834E
:100A500040E050E0BA0182E50E9475046C837D831A
:100A60008E839F831E861F86188A198A1D870C878E
:100A70004FEF5FEFBA018DE40E947504623171059A
:100A800069F11CF56130710579F5C0917A01FC9E20
:100A9000E0011124CC57DE4F188619861A861B8672
:100AA000188219821A821B821C821D821E821F825A
:100AB0001E861F86188A198A40E050E0BA0181E438
:100AC0000E9475047D876C870FC06331710541F00A
:100AD0006436710549F40E94CF0306C061E001C08D
:100AE00060E088E00E948B02C0917A01C93011F069
:100AF000CF5F01C0C0E0C0937A010E94FC02609306
:100B0000390270933A0280933B0290933C02C930C1
:100B100011F0CF5F01C0C0E080913802C81719F012
:100B20000E944E0309CFD092830106CFEE24E394B6
:100B300003CFEE2089F083E191E00E942E0380E153
:100B400091E0DF91CF911F910F91FF90EF90DF9097
:100B5000BF90AF900C942E03DF91CF911F910F9116
:100B6000FF90EF90DF90BF90AF9008950E94F70143
:100B700081110C948C0408951F920F920FB60F925E
:100B800011242F933F934F935F936F937F938F9392
:100B90009F93AF93BF93EF93FF938DE392E00E94F7
:100BA0000102FF91EF91BF91AF919F918F917F9142
:100BB0006F915F914F913F912F910F900FBE0F90CA
:100BC0001F9018951F920F920FB60F9211242F931A
:100BD0008F939F93EF93FF93E0914D02F0914E021C
:100BE0008081E0915302F091540282FD12C0908105
:100BF000809156028F5F8F7320915702821751F0B8
:100C0000E0915602F0E0E35CFD4F958F8093560231
:100C100001C08081FF91EF919F918F912F910F9053
:100C20000FBE0F901F9018951F920F920FB60F9244
:100C300011242F933F938F939F93AF93BF938091F2
:100C4000720190917301A0917401B091750130917E
:100C5000710123E0230F2D3720F40196A11DB11D52
:100C600005C026E8230F0296A11DB11D2093710136
:100C70008093720190937301A0937401B0937501F6
:100C80008091760190917701A0917801B0917901DE
:100C90000196A11DB11D8093760190937701A093D9
:100CA0007801B0937901BF91AF919F918F913F915E
:100CB0002F910F900FBE0F901F9018951F920F92BB
:100CC0000FB60F9211242F933F934F935F936F931F
:100CD0007F938F939F93AF93BF93EF93FF938091F5
:100CE000700187FF05C010928500109284001BC020
:100CF00020917001022E000C330B8091FE0290E0D7
:100D00002817390784F480917001082E000C990B84
:100D1000FC01EE0FFF1F8E0F9F1FFC01E652FD4FDF
:100D2000808186FD15C0809170018F5F8093700176
:100D300020917001022E000C330B8091FE0290E096
:100D400028173907C4F4809170018C3064F113C006
:100D500080917001082E000C990BFC01EE0FFF1F13
:100D60008E0F9F1FFC01E652FD4F808160E08F7364
:100D70000E948B02D8CF80918400909185000496C8
:100D800080349C4918F480E49CE905C0809184007B
:100D900090918500049690938900809388008FEF4E
:100DA000809370013BC02091840030918500809138
:100DB0007001082E000C990BFC01EE0FFF1F8E0F27
:100DC0009F1FFC01E652FD4F81819281820F931F8C
:100DD000909389008093880080917001082E000C08
:100DE000990BFC01EE0FFF1F8E0F9F1FFC01E652B7
:100DF000FD4F808186FF12C080917001082E000C8B
:100E0000990BFC01EE0FFF1F8E0F9F1FFC01E65296
:100E1000FD4F808161E08F730E948B02FF91EF9103
:100E2000BF91AF919F918F917F916F915F914F9102
:100E30003F912F910F900FBE0F901F901895109219
:100E4000400210923F0288EE93E0A0E0B0E0809371
:100E5000410290934202A0934302B093440284E083
:100E600091E090933E0280933D0285EC90E0909358
:100E70004A028093490284EC90E090934C02809364
:100E80004B0280EC90E090934E0280934D0281ECF7
:100E900090E09093500280934F0282EC90E0909308
:100EA00052028093510286EC90E09093540280931A
:100EB000530210925602109257021092580210924A
:100EC00059028091FE028C30A0F491E0980F90932B
:100ED000FE028093FF0290E0FC01EE0FFF1F8E0FD9
:100EE0009F1FFC01E652FD4F88EB9BE092838183BC
:100EF00008958FEF8093FF020895CF93DF93CDB7CE
:100F0000DEB72C970FB6F894DEBF0FBECDBF789436
:100F100084B5826084BD84B5816084BD85B58260FE
:100F200085BD85B5816085BD80916E0081608093AF
:100F30006E00109281008091810082608093810018
:100F40008091810081608093810080918000816028
:100F5000809380008091B10084608093B100809183
:100F6000B00081608093B00080917A0084608093AB
:100F70007A0080917A00826080937A0080917A0072
:100F8000816080937A0080917A00806880937A00F3
:100F90001092C100E4E8F1E08FEF9FEF1086118618
:100FA0001286138610821182128213821482158295
:100FB0001682178216861786108A118A958784876B
:100FC000729622E0E833F20749F7E0914D02F09182
:100FD0004E0282E08083E0914902F0914A02108241
:100FE000E0914B02F0914C0280E180831092550217
:100FF000E0915102F091520286E08083E0914F022D
:10100000F0915002808180618083E0914F02F091E5
:101010005002808188608083E0914F02F0915002FD
:10102000808180688083E0914F02F091500280813E
:101030008F7D808388E00E947F0161E088E00E94CC
:101040008B0282E00E947F0184E00E947F0185E0A4
:101050000E947F0187E00E947F018091FF028C3017
:1010600008F050C08BE00E947F018091FF02E82FC2
:10107000F0E09F01220F331FE20FF31FE652FD4FF6
:101080009081907C9B6090831092000310920103EA
:101090006CE00E948B0C3CE0839FB001112440E087
:1010A00050E09A01260F371FF901EE0FFF1F2E0F98
:1010B0003F1FF901E652FD4F908196FD16C04F5F2C
:1010C0005F4F4C30510569F781110FC010928000BD
:1010D00082E0809381001092850010928400B19A82
:1010E00080916F00826080936F00E091FF02F0E0DA
:1010F000CF01880F991FE80FF91FE652FD4F80813D
:10110000806480836AEB73E180E090E00E940504D4
:101110000E94CF030E944E030E94FC02609339029A
:1011200070933A0280933B0290933C02E091380224
:1011300080917A01E81709F404C242E14E9FF00160
:101140001124EC57FE4F80819181A281B381898364
:101150009A83AB83BC8324813581468157812D835B
:101160003E834F835887608571858285938504858A
:1011700015854684578460887188611571058105DD
:10118000910511F00E9405040F3F3FEF130709F48A
:1011900063C0053B11052CF417FF05C000E010E00B
:1011A00002C004EB10E090910103809100033090A5
:1011B000FF024BE0431508F44FC068E5C62E62E01D
:1011C000D62EC91AD10897FDD394CC0CDD1CCC0CBB
:1011D000DD1CE8E8EE2EF12CE81AF10887FDF39407
:1011E000EE0CFF1CEE0CFF1C47010F2C000CAA0894
:1011F000BB08C6010D2C000CAA0BBB0B9C01AD015A
:10120000281939094A095B09D8010E94230B24EBEC
:1012100030E040E050E00E94F90A820E931EA41EC6
:10122000B51E8E149F042CF07401C814D9040CF45C
:10123000760152E0E51AF108EE0CFF1C2FB7F89486
:10124000832D90E0FC01EE0FFF1FE80FF91FE6521F
:10125000FD4FF282E1822FBF4114510461047104F9
:1012600009F452C0C301B20128EE33E040E050E07F
:101270000E94F90A29873A874B875C870E94D70228
:101280006B017C0129853A854B855C8521153105EB
:101290004105510529F129873A874B875C870E94D0
:1012A000D702DC01CB018C199D09AE09BF09298544
:1012B0003A854B855C85883E9340A105B10530F3A6
:1012C000215031094109510968EEC60E63E0D61E6E
:1012D000E11CF11C2115310541055105E1F6D6CF80
:1012E000C301B20128EE33E040E050E00E94F90A69
:1012F0006230710548F0660F771F660F771F6550E3
:101300007109CB010197F1F789819A81AB81BC8189
:10131000892B8A2B8B2B79F42D813E814F81588527
:10132000232B242B252BA1F480913802893009F43A
:10133000F3C08F5FF2C001E010E089819A81AB8138
:10134000BC81181619061A061B0624F000E002C01C
:1013500000E010E022242394312C2D813E814F8126
:101360005885121613061406150614F0212C312C7C
:1013700089809A80AB80BC80B7FE08C0B094A094EE
:1013800090948094811C911CA11CB11CCD80DE80A6
:10139000EF80F884F7FE08C0F094E094D094C094F5
:1013A000C11CD11CE11CF11CC814D904EA04FB04C3
:1013B0000CF057C0240135017594679457944794F5
:1013C00019821A821B821C820E94D7026D837E833F
:1013D0008F83988760937F01709380018093810150
:1013E00090938201C8010E941B034C0C5D1C6E1C73
:1013F0007F1C481459046A047B043CF048185908BF
:101400006A087B08C1010E9408030E94D702DC0120
:10141000CB012D813E814F815885821B930BA40BFC
:10142000B50B20917B0130917C0140917D01509161
:101430007E0182179307A407B50738F329813A8103
:101440004B815C812F5F3F4F4F4F5F4F29833A8322
:101450004B835C83281539054A055B050CF4B4CF32
:1014600063CF260137017594679457944794198286
:101470001A821B821C8229813A814B815C812C1546
:101480003D054E055F0509F44FCF0E94D7026D83DD
:101490007E838F83988760937F0170938001809310
:1014A000810190938201C1010E940803480C591CDC
:1014B0006A1C7B1C4C145D046E047F043CF04C18C9
:1014C0005D086E087F08C8010E941B030E94D702B6
:1014D000DC01CB012D813E814F815885821B930B0E
:1014E000A40BB50B20917B0130917C0140917D01D3
:1014F00050917E0182179307A407B50738F329811D
:101500003A814B815C812F5F3F4F4F4F5F4F298363
:101510003A834B835C83AFCF80E080933802809125
:101520008301882321F0109283010E944E030E94C0
:10153000FC026093390270933A0280933B029093CD
:101540003C020E94FC020091390210913A02209163
:101550003B0230913C02DC01CB01801B910BA20BC2
:10156000B30B81319742A105B10520F061E088E01D
:101570000E948B020E94B605D9CD1F93FC019927CA
:101580008827BC01E89411911032E9F3193010F06A
:101590001E30C8F31B3251F01D3249F4689406C066
:1015A0000E94E40A610F711D811D911D119110535C
:1015B0001A30B0F33EF490958095709561957F4F09
:1015C0008F4F9F4F1F910895592F482F372F262F48
:1015D000660F771F881F991F660F771F881F991F37
:1015E000620F731F841F951F660F771F881F991F37
:1015F0000895052E97FB1EF400940E94100B57FDD2
:1016000007D00E942B0B07FC03D04EF40C94100B58
:1016100050954095309521953F4F4F4F5F4F08951E
:1016200090958095709561957F4F8F4F9F4F08954E
:101630000E944D0BA59F900DB49F900DA49F800D0F
:10164000911D11240895B7FF0C94180B0E94180BDC
:10165000821B930B0895A1E21A2EAA1BBB1BFD014E
:101660000DC0AA1FBB1FEE1FFF1FA217B307E40781
:10167000F50720F0A21BB30BE40BF50B661F771FD9
:10168000881F991F1A9469F76095709580959095B9
:101690009B01AC01BD01CF010895A29FB001B39F92
:1016A000C001A39F700D811D1124911DB29F700D6B
:1016B000811D1124911D08950E94700B0C94510CF2
:1016C0000E944A0C58F00E94430C40F029F45F3FFE
:1016D00029F00C943A0C51110C94850C0C94400C8C
:1016E0000E94620C68F39923B1F3552391F3951B83
:1016F000550BBB27AA2762177307840738F09F5F33
:101700005F4F220F331F441FAA1FA9F335D00E2E9F
:101710003AF0E0E832D091505040E695001CCAF70C
:101720002BD0FE2F29D0660F771F881FBB1F2617CF
:1017300037074807AB07B0E809F0BB0B802DBF01A6
:10174000FF2793585F4F3AF09E3F510578F00C9475
:101750003A0C0C94850C5F3FE4F3983ED4F38695E5
:1017600077956795B795F7959F5FC9F7880F911D96
:101770009695879597F90895E1E0660F771F881F82
:10178000BB1F621773078407BA0720F0621B730B35
:10179000840BBA0BEE1F88F7E09508950E946A0C3F
:1017A00088F09F5798F0B92F9927B751B0F0E1F022
:1017B000660F771F881F991F1AF0BA95C9F714C0D2
:1017C000B13091F00E94840CB1E008950C94840C27
:1017D000672F782F8827B85F39F0B93FCCF386950B
:1017E00077956795B395D9F73EF490958095709568
:1017F00061957F4F8F4F9F4F0895E89409C097FBE5
:101800003EF490958095709561957F4F8F4F9F4FD7
:101810009923A9F0F92F96E9BB279395F69587951B
:1018200077956795B795F111F8CFFAF4BB0F11F4DE
:1018300060FF1BC06F5F7F4F8F4F9F4F16C0882385
:1018400011F096E911C0772321F09EE8872F762FBB
:1018500005C0662371F096E8862F70E060E02AF0FC
:101860009A95660F771F881FDAF7880F96958795E8
:1018700097F9089597F99F6780E870E060E0089510
:101880009FEF80EC089500240A9416161706180698
:101890000906089500240A94121613061406050674
:1018A0000895092E0394000C11F4882352F0BB0F05
:1018B00040F4BF2B11F460FF04C06F5F7F4F8F4F68
:1018C0009F4F089557FD9058440F551F59F05F3FA3
:1018D00071F04795880F97FB991F61F09F3F79F052
:1018E00087950895121613061406551FF2CF4695D4
:1018F000F1DF08C0161617061806991FF1CF869556
:101900007105610508940895E894BB276627772739
:10191000CB0197F90895991B79E004C0991F961798
:1019200008F0961B881F7A95C9F780950895EE0FE9
:10193000FF1F0590F491E02D099481E090E0F89468
:081940000C94A20CF894FFCFF7
:101948000000000022029E01EB01C901DD016902CD
:101958000D0A0042756666657246756C6C20706C7F
:0A1968006561736520776169740002
:107E0000112484B714BE81FFF0D085E080938100F7
:107E100082E08093C00088E18093C10086E0809377
:107E2000C20080E18093C4008EE0C9D0259A86E02C
:107E300020E33CEF91E0309385002093840096BBD3
:107E4000B09BFECF1D9AA8958150A9F7CC24DD24C4
:107E500088248394B5E0AB2EA1E19A2EF3E0BF2EE7
:107E6000A2D0813461F49FD0082FAFD0023811F036
:107E7000013811F484E001C083E08DD089C08234E0
:107E800011F484E103C0853419F485E0A6D080C0E4
:107E9000853579F488D0E82EFF2485D0082F10E0AE
:107EA000102F00270E291F29000F111F8ED06801E7
:107EB0006FC0863521F484E090D080E0DECF843638
:107EC00009F040C070D06FD0082F6DD080E0C81688
:107ED00080E7D80618F4F601B7BEE895C0E0D1E017
:107EE00062D089930C17E1F7F0E0CF16F0E7DF06D8
:107EF00018F0F601B7BEE89568D007B600FCFDCFD4
:107F0000A601A0E0B1E02C9130E011968C91119780
:107F100090E0982F8827822B932B1296FA010C0160
:107F200087BEE89511244E5F5F4FF1E0A038BF0790
:107F300051F7F601A7BEE89507B600FCFDCF97BE46
:107F4000E89526C08437B1F42ED02DD0F82E2BD052
:107F50003CD0F601EF2C8F010F5F1F4F84911BD097
:107F6000EA94F801C1F70894C11CD11CFA94CF0C13
:107F7000D11C0EC0853739F428D08EE10CD085E9AC
:107F80000AD08FE07ACF813511F488E018D01DD067
:107F900080E101D065CF982F8091C00085FFFCCF94
:107FA0009093C60008958091C00087FFFCCF809118
:107FB000C00084FD01C0A8958091C6000895E0E648
:107FC000F0E098E1908380830895EDDF803219F02E
:107FD00088E0F5DFFFCF84E1DECF1F93182FE3DFCA
:107FE0001150E9F7F2DF1F91089580E0E8DFEE27F6
:047FF000FF270994CA
:027FFE00040479
:0400000300007E007B
:00000001FF